:020000040000FA
:02000000502886
:040002000034003492
:08000800F000030EF100831269
:1000100003130C180E280B19142827280C1083160C
:100020000317900A111427280B1183160317920A3D
:1000300006301202031D1E2892011E28920082071C
:100040001314931413159315131693162728710E72
:080050008300F00E700E0900A0
:1000A00083160317880189018316031388018601CB
:1000B0008B170B17831603130C148312031390165C
:1000C000101690101014831603138112811101155C
:1000D000811001108B166C288316031711187F20CE
:1000E0007208603C031989207308603C03198C2056
:1000F0007408243C03198F209120B6206C288316A5
:100100000317910110301002031D08009001F20A3C
:100110000800F201F30A0800F301F40A0800F401F0
:100120000800F6017208F0000A30F002031C9A2859
:10013000F60A94280A307007F500F8017308F000F9
:100140000A30F002031CA628F80AA0280A3070071B
:10015000F700FA017408F0000A30F002031CB2281C
:10016000FA0AAC280A307007F90008008316031752
:100170001318C5209318CD201319D5209319DD200D
:10018000131AE520931AED20080083160317930134
:10019000831203133D308600080083160317930172
:1001A000831203133E308600080083160317930161
:1001B0008312031338308600080083160317930157
:1001C000831203133430860008008316031793014B
:1001D000831203132C308600080083160317930143
:0A01E000831203131C308600080090
:02400E00E22F9F
:02401000FF3F70
:00000001FF
