:020000040000FA
:02000000502886
:040002000034003492
:08000800F000030EF100831269
:1000100003130C180C2812280C1083160317900ACF
:0E00200011141228710E8300F00E700E0900EC
:1000A0008316031788018901831603138715071622
:1000B0008B170B17831603130C148312031390165C
:1000C00010169010101483120313941694158316AF
:1000D000031349309300FC012730FC006F2883167E
:1000E0000317111881207208603C03198B207308D4
:1000F000603C03198E207408243C0319912093203E
:100100006F2883160317910110301002031D080099
:100110009001F20A0800F201F30A0800F301F40A60
:100120000800F4010800F6017208FB000A30FB0227
:10013000031C9C28F60A96280A307B07F500F80174
:100140007308FB000A30FB02031CA828F80AA22847
:100150000A307B07F700FA017408FB000A30FB0243
:10016000031CB428FA0AAE280A307B07F9000800FD
:0C0170008316031311141118BB2808009B
:02400E00E22F9F
:02401000FF3F70
:00000001FF
