:020000040000FA
:02000000502886
:040002000034003492
:08000800F000030EF100831269
:1000100003130C1083160317900A1114920A102868
:0A002000710E8300F00E700E09004F
:1000A00083160317880189018316031388018601CB
:1000B0008B170B17831603130C148312031390165C
:1000C0001016901010108316031381128111011560
:1000D000811001108B166C288316031711187E20CF
:1000E0007208603C031988207308603C03198B2058
:1000F0007408243C03198E2090206C288316031763
:10010000910110301002031D7E289001F20A0800B0
:10011000F201F30A0800F301F40A0800F4010800F0
:10012000F6017208F0000A30F002031C9928F60A62
:1001300093280A307007F500F8017308F0000A30C0
:10014000F002031CA528F80A9F280A307007F70060
:10015000FA017408F0000A30F002031CB128FA0A10
:0A016000AB280A307007F900080010
:02400E00E22F9F
:02401000FF3F70
:00000001FF
