:020000040000FA
:02000000502886
:040002000034003492
:08000800F000030EF100831269
:1000100003130C180C2812280C1083160317900ACF
:0E00200011141228710E8300F00E700E0900EC
:1000A00083160317880189018B170B178316031317
:1000B0000C1483120313901610169010101460285D
:1000C00083160317111872207208603C03197C20F4
:1000D0007308603C03197F207408243C03198220B4
:1000E0008420602883160317910110301002031D2D
:1000F00008009001F20A0800F201F30A0800F30177
:10010000F40A0800F4010800F6017208FB000A3046
:10011000FB02031C8D28F60A87280A307B07F500AE
:10012000F8017308FB000A30FB02031C9928F80A47
:1001300093280A307B07F700FA017408FB000A30A5
:10014000FB02031CA528FA0A9F280A307B07F90046
:020150000800A5
:02400E00E22F9F
:02401000FF3F70
:00000001FF
