:020000040000FA
:02000000502886
:040002000034003492
:08000800F000030EF100831269
:1000100003130C180E280B19142827280C1083160C
:100020000317900A111427280B1183160317920A3D
:100030001208063C031D92011F2093002728120876
:100040008207013402340434083410342034710E31
:080050008300F00E700E0900A0
:1000A00083160317880189018316031388018601CB
:1000B0008B170B17831603130C148312031390165C
:1000C000101690101014831603138112811101155C
:1000D000811001108B166C288316031711187F20CE
:1000E0007208603C031989207308603C03198C2056
:1000F0007408243C03198F209120B6206C288316A5
:100100000317910110301002031D08009001F20A3C
:100110000800F201F30A0800F301F40A0800F401F0
:100120000800F6017208FB000A30FB02031C9A2843
:10013000F60A94280A307B07F500F8017308FB00E3
:100140000A30FB02031CA628F80AA0280A307B0705
:10015000F700FA017408FB000A30FB02031CB22806
:10016000FA0AAC280A307B07F90008008316031747
:100170001318C5209318D1201319DD209319E820F6
:10018000131AF320931AFE20080083160317930115
:1001900075080921FF3A8312031388003D30860059
:1001A000080083160317930176080921FF3A83128A
:1001B000031388003E30860008008316031793015E
:1001C000770809218312031388003830860008005D
:1001D00083160317930178080921831203138800FB
:1001E000343086000800831603179301790809212B
:1001F0008312031388002C3086000800831603172F
:1002000093017A0809218312031388001C308600A9
:10021000080082073F3406345B344F3466346D3453
:080220007D3407347F346F3494
:02400E00E22F9F
:02401000FF3F70
:00000001FF
