:020000040000FA
:02000000502886
:040002000034003492
:08000800F000030EF100831269
:1000100003130C180C2812280C1083160317900ACF
:0E00200011141228710E8300F00E700E0900EC
:1000A0008316031788018901831603138715071622
:1000B0008B170B17831603130C148312031390165C
:1000C00010169010101483120313941694154930CF
:1000D00093006A288316031711187C207208603C6D
:1000E000031986207308603C031989207408243C96
:1000F00003198C208E206A28831603179101103073
:100100001002031D08009001F20A0800F201F30A30
:100110000800F301F40A0800F4010800F60172086F
:10012000FB000A30FB02031C9728F60A91280A30CC
:100130007B07F500F8017308FB000A30FB02031C83
:10014000A328F80A9D280A307B07F700FA017408F3
:10015000FB000A30FB02031CAF28FA0AA9280A3068
:060160007B07F900080016
:02400E00E22F9F
:02401000FF3F70
:00000001FF
