:020000040000FA
:02000000502886
:040002000034003492
:08000800F000030EF100831269
:1000100003130C1083160317900A11140F28710E86
:080020008300F00E700E0900D0
:1000A00083160317880189018316031388018601CB
:1000B0008B170B17831603130C148312031390165C
:1000C000101690101010642883160317111876204C
:1000D0007208603C031980207308603C0319832078
:1000E0007408243C0319862088206428831603178B
:1000F000910110301002031D76289001F20A0800C9
:10010000F201F30A0800F301F40A0800F401080000
:10011000F6017208F0000A30F002031C9128F60A7A
:100120008B280A307007F500F8017308F0000A30D8
:10013000F002031C9D28F80A97280A307007F70080
:10014000FA017408F0000A30F002031CA928FA0A28
:0A015000A3280A307007F900080028
:02400E00E22F9F
:02401000FF3F70
:00000001FF
