:020000040000FA
:02000000502886
:040002000034003492
:08000800F000030EF100831269
:1000100003130C1083160317900A11140F28710E86
:080020008300F00E700E0900D0
:1000A00083160317880189018316031388018601CB
:1000B0008B170B17831603130C148312031390165C
:1000C00010169010101064288316031711187B2047
:1000D000831603171208603C031D8520831603173F
:1000E0001308603C031D8A20831603171408243C60
:1000F000031D8F206428831603179101103010020E
:10010000031D7B289001920A0800831603179201B1
:10011000930A0800831603179301940A08008316B4
:0601200003179401080022
:02400E00E22F9F
:02401000FF3F70
:00000001FF
